{
  "address": "0x59652749077439f19993b5C4c69448bC9517AA5D",
  "abi": [
    {
      "inputs": [
        {
          "internalType": "uint256",
          "name": "_unlockPeriod",
          "type": "uint256"
        },
        {
          "internalType": "contract IERC20",
          "name": "_boxCurrency",
          "type": "address"
        },
        {
          "internalType": "uint256",
          "name": "_fixedAmount",
          "type": "uint256"
        }
      ],
      "stateMutability": "nonpayable",
      "type": "constructor"
    },
    {
      "anonymous": false,
      "inputs": [
        {
          "indexed": true,
          "internalType": "address",
          "name": "claimer",
          "type": "address"
        },
        {
          "indexed": false,
          "internalType": "uint256",
          "name": "amount",
          "type": "uint256"
        }
      ],
      "name": "BoxBroken",
      "type": "event"
    },
    {
      "anonymous": false,
      "inputs": [
        {
          "indexed": true,
          "internalType": "address",
          "name": "stealer",
          "type": "address"
        },
        {
          "indexed": true,
          "internalType": "address",
          "name": "victim",
          "type": "address"
        }
      ],
      "name": "BoxStolen",
      "type": "event"
    },
    {
      "anonymous": false,
      "inputs": [
        {
          "indexed": true,
          "internalType": "address",
          "name": "donor",
          "type": "address"
        },
        {
          "indexed": false,
          "internalType": "uint256",
          "name": "amount",
          "type": "uint256"
        }
      ],
      "name": "Donation",
      "type": "event"
    },
    {
      "anonymous": false,
      "inputs": [
        {
          "indexed": true,
          "internalType": "address",
          "name": "rester",
          "type": "address"
        },
        {
          "indexed": false,
          "internalType": "address[]",
          "name": "degens",
          "type": "address[]"
        }
      ],
      "name": "Reset",
      "type": "event"
    },
    {
      "inputs": [],
      "name": "boxCurrency",
      "outputs": [
        {
          "internalType": "contract IERC20",
          "name": "",
          "type": "address"
        }
      ],
      "stateMutability": "view",
      "type": "function"
    },
    {
      "inputs": [
        {
          "internalType": "uint256",
          "name": "",
          "type": "uint256"
        }
      ],
      "name": "degens",
      "outputs": [
        {
          "internalType": "address",
          "name": "",
          "type": "address"
        }
      ],
      "stateMutability": "view",
      "type": "function"
    },
    {
      "inputs": [
        {
          "internalType": "uint256",
          "name": "amount",
          "type": "uint256"
        }
      ],
      "name": "donate",
      "outputs": [],
      "stateMutability": "nonpayable",
      "type": "function"
    },
    {
      "inputs": [],
      "name": "fixedAmount",
      "outputs": [
        {
          "internalType": "uint256",
          "name": "",
          "type": "uint256"
        }
      ],
      "stateMutability": "view",
      "type": "function"
    },
    {
      "inputs": [],
      "name": "getDegens",
      "outputs": [
        {
          "internalType": "address[]",
          "name": "",
          "type": "address[]"
        }
      ],
      "stateMutability": "view",
      "type": "function"
    },
    {
      "inputs": [],
      "name": "isBroken",
      "outputs": [
        {
          "internalType": "bool",
          "name": "",
          "type": "bool"
        }
      ],
      "stateMutability": "view",
      "type": "function"
    },
    {
      "inputs": [],
      "name": "moneyInTheBox",
      "outputs": [
        {
          "internalType": "uint256",
          "name": "",
          "type": "uint256"
        }
      ],
      "stateMutability": "view",
      "type": "function"
    },
    {
      "inputs": [],
      "name": "owner",
      "outputs": [
        {
          "internalType": "address",
          "name": "",
          "type": "address"
        }
      ],
      "stateMutability": "view",
      "type": "function"
    },
    {
      "inputs": [],
      "name": "restart",
      "outputs": [],
      "stateMutability": "nonpayable",
      "type": "function"
    },
    {
      "inputs": [],
      "name": "steal",
      "outputs": [],
      "stateMutability": "nonpayable",
      "type": "function"
    },
    {
      "inputs": [],
      "name": "unlock",
      "outputs": [],
      "stateMutability": "nonpayable",
      "type": "function"
    },
    {
      "inputs": [],
      "name": "unlockEnd",
      "outputs": [
        {
          "internalType": "uint256",
          "name": "",
          "type": "uint256"
        }
      ],
      "stateMutability": "view",
      "type": "function"
    },
    {
      "inputs": [],
      "name": "unlockPeriod",
      "outputs": [
        {
          "internalType": "uint256",
          "name": "",
          "type": "uint256"
        }
      ],
      "stateMutability": "view",
      "type": "function"
    }
  ],
  "transactionHash": "0xdbe1fc7a6b8d9486369c66fde16e123cf15e4ca9e23d28a290f028dc1ee741e4",
  "args": [
    100,
    "0x9c3C9283D3e44854697Cd22D3Faa240Cfb032889",
    "1000000000000000000"
  ],
  "numDeployments": 2,
  "solcInputHash": "de371ca260bbe4150dcb854615fd5280",
  "bytecode": "0x60c060405234801561001057600080fd5b50604051610c82380380610c8283398101604081905261002f91610058565b608083905261003e834261009e565b6000556001600160a01b0390911660a052600255506100c4565b60008060006060848603121561006d57600080fd5b835160208501519093506001600160a01b038116811461008c57600080fd5b80925050604084015190509250925092565b600082198211156100bf57634e487b7160e01b600052601160045260246000fd5b500190565b60805160a051610b7d610105600039600081816101a20152818161034f015281816104ac01526105af015260008181610105015261075a0152610b7d6000f3fe608060405234801561001057600080fd5b50600436106100cf5760003560e01c8063c7e629781161008c578063e450f34111610066578063e450f341146101c4578063e6e25d10146101cd578063f14faf6f146101d6578063ffd34ad5146101e957600080fd5b8063c7e6297814610182578063cf7a896514610195578063d222a7041461019d57600080fd5b80630dfbe1af146100d45780631ef3755d146100f657806320d3a0b41461010057806376f9bac3146101355780638da5cb5b1461014a578063a69df4b51461017a575b600080fd5b6003546100e19060ff1681565b60405190151581526020015b60405180910390f35b6100fe6101f2565b005b6101277f000000000000000000000000000000000000000000000000000000000000000081565b6040519081526020016100ed565b61013d610246565b6040516100ed9190610998565b6003546101629061010090046001600160a01b031681565b6040516001600160a01b0390911681526020016100ed565b6100fe6102a8565b6101626101903660046109e5565b6103c8565b6100fe6103f2565b6101627f000000000000000000000000000000000000000000000000000000000000000081565b61012760015481565b61012760005481565b6100fe6101e43660046109e5565b610545565b61012760025481565b60035460ff1661023c5760405162461bcd60e51b815260206004820152601060248201526f2137bc1034b9b713ba10313937b5b2b760811b60448201526064015b60405180910390fd5b610244610676565b565b6060600580548060200260200160405190810160405280929190818152602001828054801561029e57602002820191906000526020600020905b81546001600160a01b03168152600190910190602001808311610280575b5050505050905090565b60035461010090046001600160a01b031633146103075760405162461bcd60e51b815260206004820181905260248201527f4f776e61626c653a2063616c6c6572206973206e6f7420746865206f776e65726044820152606401610233565b600054421180610319575060035460ff165b61032257600080fd5b600180546000909155610333610676565b60405163a9059cbb60e01b8152336004820152602481018290527f00000000000000000000000000000000000000000000000000000000000000006001600160a01b03169063a9059cbb906044016020604051808303816000875af11580156103a0573d6000803e3d6000fd5b505050506040513d601f19601f820116820180604052508101906103c491906109fe565b5050565b600581815481106103d857600080fd5b6000918252602090912001546001600160a01b0316905081565b60035460ff16156104365760405162461bcd60e51b815260206004820152600e60248201526d30b63932b0b23c90313937b5b2b760911b6044820152606401610233565b600354336101009091046001600160a01b0316036104865760405162461bcd60e51b815260206004820152600d60248201526c30b63932b0b23c9037bbb732b960991b6044820152606401610233565b6002546040516323b872dd60e01b815233600482015230602482015260448101919091527f00000000000000000000000000000000000000000000000000000000000000006001600160a01b0316906323b872dd906064016020604051808303816000875af11580156104fd573d6000803e3d6000fd5b505050506040513d601f19601f8201168201806040525081019061052191906109fe565b61052a57600080fd5b60025460015461053a9190610a3d565b6001556102446106d5565b60035460ff161561058d5760405162461bcd60e51b81526020600482015260126024820152712137bc1030b63932b0b23c90313937b5b2b760711b6044820152606401610233565b6040516323b872dd60e01b8152336004820152306024820152604481018290527f00000000000000000000000000000000000000000000000000000000000000006001600160a01b0316906323b872dd906064016020604051808303816000875af1158015610600573d6000803e3d6000fd5b505050506040513d601f19601f8201168201806040525081019061062491906109fe565b61062d57600080fd5b8060015461063b9190610a3d565b60015560405181815233907f5d8bc849764969eb1bcc6d0a2f55999d0167c1ccec240a4f39cf664ca9c4148e9060200160405180910390a250565b336001600160a01b03167fd2f14703663929c016e32e241eb8bfeb3b8c50c56a3f11dfb2bd5390ebc90a0360056040516106b09190610a55565b60405180910390a26003805460ff191690556106ce6005600061095e565b6000600455565b60055460408051446020808301919091524282840152606080830194909452825180830390940184526080909101909152815191012060006107196103e883610a99565b905061074b6040518060400160405280600e81526020016d627265616b726573756c7420257360901b815250826108fd565b6005548111156108a35761077f7f000000000000000000000000000000000000000000000000000000000000000042610a3d565b60009081556003805433610100908102610100600160a81b03198316179092556001600160a01b0391900416906001905b60055481101561080857336001600160a01b0316600582815481106107d7576107d7610abb565b6000918252602090912001546001600160a01b0316036107f657600091505b8061080081610ad1565b9150506107b0565b50801561085257600580546001810182556000919091527f036b6384b5eca791c62761152d0c79bb0604c104a5fb6f4eb0703f3154bb3db00180546001600160a01b031916331790555b6004805490600061086283610ad1565b90915550506040516001600160a01b0383169033907f3e180be487873b5f934a22236488c4b86b5b5bd9516a5c8e4da5d281ccf3c8e590600090a350505050565b60038054600160ff19909116811791829055546040519081526101009091046001600160a01b0316907f4c6930485c64716b6305246f9de42caf9e68d34423d6daa684d523237b70d1569060200160405180910390a25050565b6103c48282604051602401610913929190610aea565b60408051601f198184030181529190526020810180516001600160e01b03166309710a9d60e41b17905280516a636f6e736f6c652e6c6f67602083016000808483855afa5050505050565b508054600082559060005260206000209081019061097c919061097f565b50565b5b808211156109945760008155600101610980565b5090565b6020808252825182820181905260009190848201906040850190845b818110156109d95783516001600160a01b0316835292840192918401916001016109b4565b50909695505050505050565b6000602082840312156109f757600080fd5b5035919050565b600060208284031215610a1057600080fd5b81518015158114610a2057600080fd5b9392505050565b634e487b7160e01b600052601160045260246000fd5b60008219821115610a5057610a50610a27565b500190565b6020808252825482820181905260008481528281209092916040850190845b818110156109d95783546001600160a01b031683526001938401939285019201610a74565b600082610ab657634e487b7160e01b600052601260045260246000fd5b500690565b634e487b7160e01b600052603260045260246000fd5b600060018201610ae357610ae3610a27565b5060010190565b604081526000835180604084015260005b81811015610b185760208187018101516060868401015201610afb565b81811115610b2a576000606083860101525b50602083019390935250601f91909101601f19160160600191905056fea264697066735822122054f4fc9e5c9f828773f33287aef87b8b7be3f5071baa4711e8ed67e87ed90b8b64736f6c634300080d0033",
  "devdoc": {
    "kind": "dev",
    "methods": {},
    "version": 1
  },
  "userdoc": {
    "kind": "user",
    "methods": {},
    "version": 1
  },
  "storageLayout": {
    "storage": [
      {
        "astId": 8147,
        "contract": "src/Degenbox.sol:DegenBox",
        "label": "unlockEnd",
        "offset": 0,
        "slot": "0",
        "type": "t_uint256"
      },
      {
        "astId": 8154,
        "contract": "src/Degenbox.sol:DegenBox",
        "label": "moneyInTheBox",
        "offset": 0,
        "slot": "1",
        "type": "t_uint256"
      },
      {
        "astId": 8156,
        "contract": "src/Degenbox.sol:DegenBox",
        "label": "fixedAmount",
        "offset": 0,
        "slot": "2",
        "type": "t_uint256"
      },
      {
        "astId": 8158,
        "contract": "src/Degenbox.sol:DegenBox",
        "label": "isBroken",
        "offset": 0,
        "slot": "3",
        "type": "t_bool"
      },
      {
        "astId": 8160,
        "contract": "src/Degenbox.sol:DegenBox",
        "label": "owner",
        "offset": 1,
        "slot": "3",
        "type": "t_address"
      },
      {
        "astId": 8162,
        "contract": "src/Degenbox.sol:DegenBox",
        "label": "stealCount",
        "offset": 0,
        "slot": "4",
        "type": "t_uint256"
      },
      {
        "astId": 8165,
        "contract": "src/Degenbox.sol:DegenBox",
        "label": "degens",
        "offset": 0,
        "slot": "5",
        "type": "t_array(t_address)dyn_storage"
      }
    ],
    "types": {
      "t_address": {
        "encoding": "inplace",
        "label": "address",
        "numberOfBytes": "20"
      },
      "t_array(t_address)dyn_storage": {
        "base": "t_address",
        "encoding": "dynamic_array",
        "label": "address[]",
        "numberOfBytes": "32"
      },
      "t_bool": {
        "encoding": "inplace",
        "label": "bool",
        "numberOfBytes": "1"
      },
      "t_uint256": {
        "encoding": "inplace",
        "label": "uint256",
        "numberOfBytes": "32"
      }
    }
  }
}