{
  "address": "0xE91F787c9066962E2B7CD81ED9Cc3c8bA78e150d",
  "abi": [
    {
      "inputs": [],
      "name": "getMaxBlockTimestampDelay",
      "outputs": [
        {
          "internalType": "uint256",
          "name": "",
          "type": "uint256"
        }
      ],
      "stateMutability": "view",
      "type": "function"
    },
    {
      "inputs": [],
      "name": "getMaxDataTimestampDelay",
      "outputs": [
        {
          "internalType": "uint256",
          "name": "",
          "type": "uint256"
        }
      ],
      "stateMutability": "view",
      "type": "function"
    },
    {
      "inputs": [
        {
          "internalType": "address",
          "name": "_receviedSigner",
          "type": "address"
        }
      ],
      "name": "isSignerAuthorized",
      "outputs": [
        {
          "internalType": "bool",
          "name": "",
          "type": "bool"
        }
      ],
      "stateMutability": "view",
      "type": "function"
    },
    {
      "inputs": [
        {
          "internalType": "uint256",
          "name": "_receivedTimestamp",
          "type": "uint256"
        }
      ],
      "name": "isTimestampValid",
      "outputs": [
        {
          "internalType": "bool",
          "name": "",
          "type": "bool"
        }
      ],
      "stateMutability": "view",
      "type": "function"
    },
    {
      "inputs": [],
      "name": "redstoneGetLastPrice",
      "outputs": [
        {
          "internalType": "uint256",
          "name": "",
          "type": "uint256"
        }
      ],
      "stateMutability": "view",
      "type": "function"
    }
  ],
  "transactionHash": "0x1b9d935aafee96cc913a771cbe56f7d273464314eb4de3a53ce57efe0a066bab",
  "args": [],
  "numDeployments": 1,
  "solcInputHash": "0c9a2cc0e0c6e93d39fee3ccc6b54d52",
  "bytecode": "0x608060405234801561001057600080fd5b5061109a806100206000396000f3fe608060405234801561001057600080fd5b50600436106100575760003560e01c806311c89b101461005c5780633520dc061461008c5780635118af5a146100aa57806375058205146100c8578063f31a210a146100f8575b600080fd5b6100766004803603810190610071919061091d565b610116565b6040516100839190610965565b60405180910390f35b610094610162565b6040516100a19190610999565b60405180910390f35b6100b2610197565b6040516100bf9190610999565b60405180910390f35b6100e260048036038101906100dd91906109e0565b6101a0565b6040516100ef9190610965565b60405180910390f35b61010061021c565b60405161010d9190610999565b60405180910390f35b6000730c39486f770b26f5527bbbf942726537986cd7eb73ffffffffffffffffffffffffffffffffffffffff168273ffffffffffffffffffffffffffffffffffffffff16149050919050565b60008061018e7f4348460000000000000000000000000000000000000000000000000000000000610225565b90508091505090565b6000600f905090565b6000816101ab610197565b426101b69190610a3c565b116101f6576040517f08c379a00000000000000000000000000000000000000000000000000000000081526004016101ed90610b15565b60405180910390fd5b81421080610215575061020761021c565b82426102139190610b35565b105b9050919050565b600060b4905090565b600080600167ffffffffffffffff81111561024357610242610b69565b5b6040519080825280602002602001820160405280156102715781602001602082028036833780820191505090505b509050828160008151811061028957610288610b98565b5b60200260200101818152505061029e816102c1565b6000815181106102b1576102b0610b98565b5b6020026020010151915050919050565b60606000606136033590506000602060408360ff166102e09190610bd5565b6102ea9190610c11565b905060606040519050818152816042830136036020830137602081016040526000818051906020012090506000816040516020016103289190610ccb565b604051602081830303815290604052805190602001209050606060405190506041815260418036036020830137602081016040526000610371828461042990919063ffffffff16565b905061037c81610116565b6103bb576040517f08c379a00000000000000000000000000000000000000000000000000000000081526004016103b290610d3d565b60405180910390fd5b6000606236033590506103cd816101a0565b61040c576040517f08c379a000000000000000000000000000000000000000000000000000000000815260040161040390610da9565b60405180910390fd5b61041a8a8960ff1689610450565b98505050505050505050919050565b600080600061043885856104f6565b9150915061044581610579565b819250505092915050565b6060806000806000806042870136035995508951865260208a51026020870101604052600094505b888510156104e657604085028101359150600093505b89518410156104db57816020850260208c01015114156104c35760206040860282010135602085026020880101526001830192505b89518314156104d0578894505b60018401935061048e565b600185019450610478565b5084955050505050509392505050565b6000806041835114156105385760008060006020860151925060408601519150606086015160001a905061052c8782858561074e565b94509450505050610572565b60408351141561056957600080602085015191506040850151905061055e86838361085b565b935093505050610572565b60006002915091505b9250929050565b6000600481111561058d5761058c610dc9565b5b8160048111156105a05761059f610dc9565b5b14156105ab5761074b565b600160048111156105bf576105be610dc9565b5b8160048111156105d2576105d1610dc9565b5b1415610613576040517f08c379a000000000000000000000000000000000000000000000000000000000815260040161060a90610e44565b60405180910390fd5b6002600481111561062757610626610dc9565b5b81600481111561063a57610639610dc9565b5b141561067b576040517f08c379a000000000000000000000000000000000000000000000000000000000815260040161067290610eb0565b60405180910390fd5b6003600481111561068f5761068e610dc9565b5b8160048111156106a2576106a1610dc9565b5b14156106e3576040517f08c379a00000000000000000000000000000000000000000000000000000000081526004016106da90610f42565b60405180910390fd5b6004808111156106f6576106f5610dc9565b5b81600481111561070957610708610dc9565b5b141561074a576040517f08c379a000000000000000000000000000000000000000000000000000000000815260040161074190610fd4565b60405180910390fd5b5b50565b6000807f7fffffffffffffffffffffffffffffff5d576e7357a4501ddfe92f46681b20a08360001c1115610789576000600391509150610852565b601b8560ff16141580156107a15750601c8560ff1614155b156107b3576000600491509150610852565b6000600187878787604051600081526020016040526040516107d8949392919061101f565b6020604051602081039080840390855afa1580156107fa573d6000803e3d6000fd5b505050602060405103519050600073ffffffffffffffffffffffffffffffffffffffff168173ffffffffffffffffffffffffffffffffffffffff16141561084957600060019250925050610852565b80600092509250505b94509492505050565b60008060007f7fffffffffffffffffffffffffffffffffffffffffffffffffffffffffffffff60001b841690506000601b60ff8660001c901c61089e9190610a3c565b90506108ac8782888561074e565b935093505050935093915050565b600080fd5b600073ffffffffffffffffffffffffffffffffffffffff82169050919050565b60006108ea826108bf565b9050919050565b6108fa816108df565b811461090557600080fd5b50565b600081359050610917816108f1565b92915050565b600060208284031215610933576109326108ba565b5b600061094184828501610908565b91505092915050565b60008115159050919050565b61095f8161094a565b82525050565b600060208201905061097a6000830184610956565b92915050565b6000819050919050565b61099381610980565b82525050565b60006020820190506109ae600083018461098a565b92915050565b6109bd81610980565b81146109c857600080fd5b50565b6000813590506109da816109b4565b92915050565b6000602082840312156109f6576109f56108ba565b5b6000610a04848285016109cb565b91505092915050565b7f4e487b7100000000000000000000000000000000000000000000000000000000600052601160045260246000fd5b6000610a4782610980565b9150610a5283610980565b9250827fffffffffffffffffffffffffffffffffffffffffffffffffffffffffffffffff03821115610a8757610a86610a0d565b5b828201905092915050565b600082825260208201905092915050565b7f446174612077697468206675747572652074696d657374616d7073206973206e60008201527f6f7420616c6c6f77656400000000000000000000000000000000000000000000602082015250565b6000610aff602a83610a92565b9150610b0a82610aa3565b604082019050919050565b60006020820190508181036000830152610b2e81610af2565b9050919050565b6000610b4082610980565b9150610b4b83610980565b925082821015610b5e57610b5d610a0d565b5b828203905092915050565b7f4e487b7100000000000000000000000000000000000000000000000000000000600052604160045260246000fd5b7f4e487b7100000000000000000000000000000000000000000000000000000000600052603260045260246000fd5b600061ffff82169050919050565b6000610be082610bc7565b9150610beb83610bc7565b92508161ffff0483118215151615610c0657610c05610a0d565b5b828202905092915050565b6000610c1c82610bc7565b9150610c2783610bc7565b92508261ffff03821115610c3e57610c3d610a0d565b5b828201905092915050565b600081905092915050565b7f19457468657265756d205369676e6564204d6573736167653a0a333200000000600082015250565b6000610c8a601c83610c49565b9150610c9582610c54565b601c82019050919050565b6000819050919050565b6000819050919050565b610cc5610cc082610ca0565b610caa565b82525050565b6000610cd682610c7d565b9150610ce28284610cb4565b60208201915081905092915050565b7f5369676e6572206e6f7420617574686f72697a65640000000000000000000000600082015250565b6000610d27601583610a92565b9150610d3282610cf1565b602082019050919050565b60006020820190508181036000830152610d5681610d1a565b9050919050565b7f446174612074696d657374616d7020697320696e76616c696400000000000000600082015250565b6000610d93601983610a92565b9150610d9e82610d5d565b602082019050919050565b60006020820190508181036000830152610dc281610d86565b9050919050565b7f4e487b7100000000000000000000000000000000000000000000000000000000600052602160045260246000fd5b7f45434453413a20696e76616c6964207369676e61747572650000000000000000600082015250565b6000610e2e601883610a92565b9150610e3982610df8565b602082019050919050565b60006020820190508181036000830152610e5d81610e21565b9050919050565b7f45434453413a20696e76616c6964207369676e6174757265206c656e67746800600082015250565b6000610e9a601f83610a92565b9150610ea582610e64565b602082019050919050565b60006020820190508181036000830152610ec981610e8d565b9050919050565b7f45434453413a20696e76616c6964207369676e6174757265202773272076616c60008201527f7565000000000000000000000000000000000000000000000000000000000000602082015250565b6000610f2c602283610a92565b9150610f3782610ed0565b604082019050919050565b60006020820190508181036000830152610f5b81610f1f565b9050919050565b7f45434453413a20696e76616c6964207369676e6174757265202776272076616c60008201527f7565000000000000000000000000000000000000000000000000000000000000602082015250565b6000610fbe602283610a92565b9150610fc982610f62565b604082019050919050565b60006020820190508181036000830152610fed81610fb1565b9050919050565b610ffd81610ca0565b82525050565b600060ff82169050919050565b61101981611003565b82525050565b60006080820190506110346000830187610ff4565b6110416020830186611010565b61104e6040830185610ff4565b61105b6060830184610ff4565b9594505050505056fea2646970667358221220072fe35cafc34db48711e5a0dfb2937520c8102fe3735fc7206b57cf0dd29f9364736f6c634300080b0033",
  "devdoc": {
    "kind": "dev",
    "methods": {},
    "version": 1
  },
  "userdoc": {
    "kind": "user",
    "methods": {},
    "version": 1
  },
  "storageLayout": {
    "storage": [],
    "types": null
  }
}