{
  "address": "0x12D139B9b50791227E8b329244f5D1b9f7f7d58c",
  "abi": [
    {
      "inputs": [
        {
          "internalType": "uint256",
          "name": "_unlockPeriod",
          "type": "uint256"
        },
        {
          "internalType": "contract IERC20",
          "name": "_boxCurrency",
          "type": "address"
        },
        {
          "internalType": "uint256",
          "name": "_fixedAmount",
          "type": "uint256"
        }
      ],
      "stateMutability": "nonpayable",
      "type": "constructor"
    },
    {
      "anonymous": false,
      "inputs": [
        {
          "indexed": true,
          "internalType": "address",
          "name": "donor",
          "type": "address"
        },
        {
          "indexed": false,
          "internalType": "uint256",
          "name": "amount",
          "type": "uint256"
        }
      ],
      "name": "Donation",
      "type": "event"
    },
    {
      "anonymous": false,
      "inputs": [
        {
          "indexed": true,
          "internalType": "address",
          "name": "rester",
          "type": "address"
        },
        {
          "indexed": false,
          "internalType": "address[]",
          "name": "degens",
          "type": "address[]"
        }
      ],
      "name": "Reset",
      "type": "event"
    },
    {
      "anonymous": false,
      "inputs": [
        {
          "indexed": true,
          "internalType": "address",
          "name": "stealer",
          "type": "address"
        },
        {
          "indexed": true,
          "internalType": "address",
          "name": "victim",
          "type": "address"
        },
        {
          "indexed": false,
          "internalType": "bool",
          "name": "successful",
          "type": "bool"
        },
        {
          "indexed": false,
          "internalType": "uint256",
          "name": "amount",
          "type": "uint256"
        }
      ],
      "name": "StealBox",
      "type": "event"
    },
    {
      "anonymous": false,
      "inputs": [
        {
          "indexed": true,
          "internalType": "address",
          "name": "owner",
          "type": "address"
        },
        {
          "indexed": false,
          "internalType": "uint256",
          "name": "amount",
          "type": "uint256"
        }
      ],
      "name": "Unlock",
      "type": "event"
    },
    {
      "inputs": [],
      "name": "boxCurrency",
      "outputs": [
        {
          "internalType": "contract IERC20",
          "name": "",
          "type": "address"
        }
      ],
      "stateMutability": "view",
      "type": "function"
    },
    {
      "inputs": [
        {
          "internalType": "uint256",
          "name": "",
          "type": "uint256"
        }
      ],
      "name": "degens",
      "outputs": [
        {
          "internalType": "address",
          "name": "",
          "type": "address"
        }
      ],
      "stateMutability": "view",
      "type": "function"
    },
    {
      "inputs": [
        {
          "internalType": "uint256",
          "name": "amount",
          "type": "uint256"
        }
      ],
      "name": "donate",
      "outputs": [],
      "stateMutability": "nonpayable",
      "type": "function"
    },
    {
      "inputs": [],
      "name": "fixedAmount",
      "outputs": [
        {
          "internalType": "uint256",
          "name": "",
          "type": "uint256"
        }
      ],
      "stateMutability": "view",
      "type": "function"
    },
    {
      "inputs": [],
      "name": "isBroken",
      "outputs": [
        {
          "internalType": "bool",
          "name": "",
          "type": "bool"
        }
      ],
      "stateMutability": "view",
      "type": "function"
    },
    {
      "inputs": [],
      "name": "moneyInTheBox",
      "outputs": [
        {
          "internalType": "uint256",
          "name": "",
          "type": "uint256"
        }
      ],
      "stateMutability": "view",
      "type": "function"
    },
    {
      "inputs": [],
      "name": "owner",
      "outputs": [
        {
          "internalType": "address",
          "name": "",
          "type": "address"
        }
      ],
      "stateMutability": "view",
      "type": "function"
    },
    {
      "inputs": [],
      "name": "restart",
      "outputs": [],
      "stateMutability": "nonpayable",
      "type": "function"
    },
    {
      "inputs": [],
      "name": "steal",
      "outputs": [],
      "stateMutability": "nonpayable",
      "type": "function"
    },
    {
      "inputs": [],
      "name": "unlock",
      "outputs": [],
      "stateMutability": "nonpayable",
      "type": "function"
    },
    {
      "inputs": [],
      "name": "unlockEnd",
      "outputs": [
        {
          "internalType": "uint256",
          "name": "",
          "type": "uint256"
        }
      ],
      "stateMutability": "view",
      "type": "function"
    },
    {
      "inputs": [],
      "name": "unlockPeriod",
      "outputs": [
        {
          "internalType": "uint256",
          "name": "",
          "type": "uint256"
        }
      ],
      "stateMutability": "view",
      "type": "function"
    }
  ],
  "transactionHash": "0xdfd110dc57faeffa36748cab2655151a2ec8e75979f3a88aeff558d84ee75a53",
  "args": [
    1000,
    "0x9c3C9283D3e44854697Cd22D3Faa240Cfb032889",
    "1000000000000000"
  ],
  "numDeployments": 1,
  "solcInputHash": "8f7fbd91ab9b7904b7cbb0f5b673bf2b",
  "bytecode": "0x60c060405234801561001057600080fd5b50604051610aba380380610aba83398101604081905261002f91610058565b608083905261003e834261009e565b6000556001600160a01b0390911660a052600355506100c4565b60008060006060848603121561006d57600080fd5b835160208501519093506001600160a01b038116811461008c57600080fd5b80925050604084015190509250925092565b600082198211156100bf57634e487b7160e01b600052601160045260246000fd5b500190565b60805160a0516109b6610104600039600081816101720152818161030301528181610410015261051301526000818160ea015261068801526109b66000f3fe608060405234801561001057600080fd5b50600436106100b45760003560e01c8063cf7a896511610071578063cf7a896514610165578063d222a7041461016d578063e450f34114610194578063e6e25d101461019d578063f14faf6f146101a6578063ffd34ad5146101b957600080fd5b80630dfbe1af146100b95780631ef3755d146100db57806320d3a0b4146100e55780638da5cb5b1461011a578063a69df4b51461014a578063c7e6297814610152575b600080fd5b6002546100c69060ff1681565b60405190151581526020015b60405180910390f35b6100e36101c2565b005b61010c7f000000000000000000000000000000000000000000000000000000000000000081565b6040519081526020016100d2565b6002546101329061010090046001600160a01b031681565b6040516001600160a01b0390911681526020016100d2565b6100e3610216565b61013261016036600461086f565b61037c565b6100e36103a6565b6101327f000000000000000000000000000000000000000000000000000000000000000081565b61010c60015481565b61010c60005481565b6100e36101b436600461086f565b6104a9565b61010c60035481565b60025460ff1661020c5760405162461bcd60e51b815260206004820152601060248201526f2137bc1034b9b713ba10313937b5b2b760811b60448201526064015b60405180910390fd5b6102146105da565b565b60025461010090046001600160a01b031633146102755760405162461bcd60e51b815260206004820181905260248201527f4f776e61626c653a2063616c6c6572206973206e6f7420746865206f776e65726044820152606401610203565b600054421180610287575060025460ff165b61029057600080fd5b6001805460009091556102a16105da565b6002546040518281526101009091046001600160a01b0316907f6381d9813cabeb57471b5a7e05078e64845ccdb563146a6911d536f24ce960f19060200160405180910390a260405163a9059cbb60e01b8152336004820152602481018290527f00000000000000000000000000000000000000000000000000000000000000006001600160a01b03169063a9059cbb906044016020604051808303816000875af1158015610354573d6000803e3d6000fd5b505050506040513d601f19601f820116820180604052508101906103789190610888565b5050565b6004818154811061038c57600080fd5b6000918252602090912001546001600160a01b0316905081565b60025460ff16156103ea5760405162461bcd60e51b815260206004820152600e60248201526d30b63932b0b23c90313937b5b2b760911b6044820152606401610203565b6003546040516323b872dd60e01b815233600482015230602482015260448101919091527f00000000000000000000000000000000000000000000000000000000000000006001600160a01b0316906323b872dd906064016020604051808303816000875af1158015610461573d6000803e3d6000fd5b505050506040513d601f19601f820116820180604052508101906104859190610888565b61048e57600080fd5b60035460015461049e91906108c7565b600155610214610632565b60025460ff16156104f15760405162461bcd60e51b81526020600482015260126024820152712137bc1030b63932b0b23c90313937b5b2b760711b6044820152606401610203565b6040516323b872dd60e01b8152336004820152306024820152604481018290527f00000000000000000000000000000000000000000000000000000000000000006001600160a01b0316906323b872dd906064016020604051808303816000875af1158015610564573d6000803e3d6000fd5b505050506040513d601f19601f820116820180604052508101906105889190610888565b61059157600080fd5b8060015461059f91906108c7565b60015560405181815233907f5d8bc849764969eb1bcc6d0a2f55999d0167c1ccec240a4f39cf664ca9c4148e9060200160405180910390a250565b336001600160a01b03167fd2f14703663929c016e32e241eb8bfeb3b8c50c56a3f11dfb2bd5390ebc90a03600460405161061491906108df565b60405180910390a26002805460ff1916905561021460046000610835565b60045460408051446020808301919091524282840152606080830194909452825180830390940184526080909101909152815191012060006106766103e88361092f565b6004549091508111156107d1576106ad7f0000000000000000000000000000000000000000000000000000000000000000426108c7565b60009081556002805433610100908102610100600160a81b03198316179092556001600160a01b0391900416906001905b60045481101561073657336001600160a01b03166004828154811061070557610705610951565b6000918252602090912001546001600160a01b03160361072457600091505b8061072e81610967565b9150506106de565b50801561078057600480546001810182556000919091527f8a35acfbc15ff81a39ae7d344fd709f28e8600b4aa8c65c6b64bfe7fe36bd19b0180546001600160a01b031916331790555b600180546040805192835260208301919091526001600160a01b0384169133917fa12648ef59b8fc15242feff231a31aff0cb191e12971282af4cf3b02db327a7a910160405180910390a350505050565b60028054600160ff1990911681179182905554604080516000815260208101929092526101009092046001600160a01b03169133917fa12648ef59b8fc15242feff231a31aff0cb191e12971282af4cf3b02db327a7a910160405180910390a35050565b50805460008255906000526020600020908101906108539190610856565b50565b5b8082111561086b5760008155600101610857565b5090565b60006020828403121561088157600080fd5b5035919050565b60006020828403121561089a57600080fd5b815180151581146108aa57600080fd5b9392505050565b634e487b7160e01b600052601160045260246000fd5b600082198211156108da576108da6108b1565b500190565b6020808252825482820181905260008481528281209092916040850190845b818110156109235783546001600160a01b0316835260019384019392850192016108fe565b50909695505050505050565b60008261094c57634e487b7160e01b600052601260045260246000fd5b500690565b634e487b7160e01b600052603260045260246000fd5b600060018201610979576109796108b1565b506001019056fea2646970667358221220c172c3b2666b90b82ee018bbbbc905e34542acbc11b54e81ecb0931a4d4fe8d164736f6c634300080d0033",
  "devdoc": {
    "kind": "dev",
    "methods": {},
    "version": 1
  },
  "userdoc": {
    "kind": "user",
    "methods": {},
    "version": 1
  },
  "storageLayout": {
    "storage": [
      {
        "astId": 8931,
        "contract": "src/DegenboxV2.sol:DegenBoxV2",
        "label": "unlockEnd",
        "offset": 0,
        "slot": "0",
        "type": "t_uint256"
      },
      {
        "astId": 8935,
        "contract": "src/DegenboxV2.sol:DegenBoxV2",
        "label": "moneyInTheBox",
        "offset": 0,
        "slot": "1",
        "type": "t_uint256"
      },
      {
        "astId": 8940,
        "contract": "src/DegenboxV2.sol:DegenBoxV2",
        "label": "isBroken",
        "offset": 0,
        "slot": "2",
        "type": "t_bool"
      },
      {
        "astId": 8942,
        "contract": "src/DegenboxV2.sol:DegenBoxV2",
        "label": "owner",
        "offset": 1,
        "slot": "2",
        "type": "t_address"
      },
      {
        "astId": 8944,
        "contract": "src/DegenboxV2.sol:DegenBoxV2",
        "label": "fixedAmount",
        "offset": 0,
        "slot": "3",
        "type": "t_uint256"
      },
      {
        "astId": 8947,
        "contract": "src/DegenboxV2.sol:DegenBoxV2",
        "label": "degens",
        "offset": 0,
        "slot": "4",
        "type": "t_array(t_address)dyn_storage"
      }
    ],
    "types": {
      "t_address": {
        "encoding": "inplace",
        "label": "address",
        "numberOfBytes": "20"
      },
      "t_array(t_address)dyn_storage": {
        "base": "t_address",
        "encoding": "dynamic_array",
        "label": "address[]",
        "numberOfBytes": "32"
      },
      "t_bool": {
        "encoding": "inplace",
        "label": "bool",
        "numberOfBytes": "1"
      },
      "t_uint256": {
        "encoding": "inplace",
        "label": "uint256",
        "numberOfBytes": "32"
      }
    }
  }
}