{
  "address": "0x631568812AfadE1383e7bfbbe652ED03e9c07ab7",
  "abi": [
    {
      "inputs": [
        {
          "internalType": "uint256",
          "name": "_unlockPeriod",
          "type": "uint256"
        },
        {
          "internalType": "contract IERC20",
          "name": "_boxCurrency",
          "type": "address"
        },
        {
          "internalType": "uint256",
          "name": "_fixedAmount",
          "type": "uint256"
        },
        {
          "internalType": "address",
          "name": "_charityAddress",
          "type": "address"
        },
        {
          "internalType": "uint256",
          "name": "_chairityBP",
          "type": "uint256"
        }
      ],
      "stateMutability": "nonpayable",
      "type": "constructor"
    },
    {
      "anonymous": false,
      "inputs": [
        {
          "indexed": true,
          "internalType": "address",
          "name": "chairity",
          "type": "address"
        },
        {
          "indexed": false,
          "internalType": "uint256",
          "name": "amount",
          "type": "uint256"
        }
      ],
      "name": "ChairityFunding",
      "type": "event"
    },
    {
      "anonymous": false,
      "inputs": [
        {
          "indexed": true,
          "internalType": "address",
          "name": "donor",
          "type": "address"
        },
        {
          "indexed": false,
          "internalType": "uint256",
          "name": "amount",
          "type": "uint256"
        }
      ],
      "name": "Donation",
      "type": "event"
    },
    {
      "anonymous": false,
      "inputs": [
        {
          "indexed": true,
          "internalType": "address",
          "name": "rester",
          "type": "address"
        },
        {
          "indexed": false,
          "internalType": "address[]",
          "name": "degens",
          "type": "address[]"
        }
      ],
      "name": "Reset",
      "type": "event"
    },
    {
      "anonymous": false,
      "inputs": [
        {
          "indexed": true,
          "internalType": "address",
          "name": "stealer",
          "type": "address"
        },
        {
          "indexed": true,
          "internalType": "address",
          "name": "victim",
          "type": "address"
        },
        {
          "indexed": false,
          "internalType": "bool",
          "name": "successful",
          "type": "bool"
        },
        {
          "indexed": false,
          "internalType": "uint256",
          "name": "amount",
          "type": "uint256"
        }
      ],
      "name": "StealBox",
      "type": "event"
    },
    {
      "anonymous": false,
      "inputs": [
        {
          "indexed": true,
          "internalType": "address",
          "name": "",
          "type": "address"
        },
        {
          "indexed": false,
          "internalType": "uint256",
          "name": "amount",
          "type": "uint256"
        }
      ],
      "name": "Unlock",
      "type": "event"
    },
    {
      "inputs": [],
      "name": "boxCurrency",
      "outputs": [
        {
          "internalType": "contract IERC20",
          "name": "",
          "type": "address"
        }
      ],
      "stateMutability": "view",
      "type": "function"
    },
    {
      "inputs": [],
      "name": "chairityAddress",
      "outputs": [
        {
          "internalType": "address",
          "name": "",
          "type": "address"
        }
      ],
      "stateMutability": "view",
      "type": "function"
    },
    {
      "inputs": [],
      "name": "chairityBP",
      "outputs": [
        {
          "internalType": "uint256",
          "name": "",
          "type": "uint256"
        }
      ],
      "stateMutability": "view",
      "type": "function"
    },
    {
      "inputs": [
        {
          "internalType": "uint256",
          "name": "",
          "type": "uint256"
        }
      ],
      "name": "degens",
      "outputs": [
        {
          "internalType": "address",
          "name": "",
          "type": "address"
        }
      ],
      "stateMutability": "view",
      "type": "function"
    },
    {
      "inputs": [
        {
          "internalType": "uint256",
          "name": "amount",
          "type": "uint256"
        }
      ],
      "name": "donate",
      "outputs": [],
      "stateMutability": "nonpayable",
      "type": "function"
    },
    {
      "inputs": [],
      "name": "fixedAmount",
      "outputs": [
        {
          "internalType": "uint256",
          "name": "",
          "type": "uint256"
        }
      ],
      "stateMutability": "view",
      "type": "function"
    },
    {
      "inputs": [],
      "name": "getDegens",
      "outputs": [
        {
          "internalType": "address[]",
          "name": "",
          "type": "address[]"
        }
      ],
      "stateMutability": "view",
      "type": "function"
    },
    {
      "inputs": [],
      "name": "isBroken",
      "outputs": [
        {
          "internalType": "bool",
          "name": "",
          "type": "bool"
        }
      ],
      "stateMutability": "view",
      "type": "function"
    },
    {
      "inputs": [],
      "name": "moneyInTheBox",
      "outputs": [
        {
          "internalType": "uint256",
          "name": "",
          "type": "uint256"
        }
      ],
      "stateMutability": "view",
      "type": "function"
    },
    {
      "inputs": [],
      "name": "owner",
      "outputs": [
        {
          "internalType": "address",
          "name": "",
          "type": "address"
        }
      ],
      "stateMutability": "view",
      "type": "function"
    },
    {
      "inputs": [],
      "name": "restart",
      "outputs": [],
      "stateMutability": "nonpayable",
      "type": "function"
    },
    {
      "inputs": [],
      "name": "steal",
      "outputs": [],
      "stateMutability": "nonpayable",
      "type": "function"
    },
    {
      "inputs": [],
      "name": "stealCount",
      "outputs": [
        {
          "internalType": "uint256",
          "name": "",
          "type": "uint256"
        }
      ],
      "stateMutability": "view",
      "type": "function"
    },
    {
      "inputs": [],
      "name": "unlock",
      "outputs": [],
      "stateMutability": "nonpayable",
      "type": "function"
    },
    {
      "inputs": [],
      "name": "unlockEnd",
      "outputs": [
        {
          "internalType": "uint256",
          "name": "",
          "type": "uint256"
        }
      ],
      "stateMutability": "view",
      "type": "function"
    },
    {
      "inputs": [],
      "name": "unlockPeriod",
      "outputs": [
        {
          "internalType": "uint256",
          "name": "",
          "type": "uint256"
        }
      ],
      "stateMutability": "view",
      "type": "function"
    }
  ],
  "transactionHash": "0x444ecddee95f6143e88dae072cb3ae1c1ea7bb26f3930873ff70fc0b42234577",
  "args": [
    1000,
    "0x9c3C9283D3e44854697Cd22D3Faa240Cfb032889",
    "1000000000000000000",
    "0x0000000000000000000000000000000000000000",
    0
  ],
  "numDeployments": 5,
  "solcInputHash": "4e8bf63019a392c3bab990c0ed5b6cb1",
  "bytecode": "0x60c060405234801561001057600080fd5b50604051610edd380380610edd83398101604081905261002f9161008c565b608085905261003e85426100e3565b6000556001600160a01b0393841660a052600292909255600580546001600160a01b031916919093161790915560065550610109565b6001600160a01b038116811461008957600080fd5b50565b600080600080600060a086880312156100a457600080fd5b8551945060208601516100b681610074565b6040870151606088015191955093506100ce81610074565b80925050608086015190509295509295909350565b6000821982111561010457634e487b7160e01b600052601160045260246000fd5b500190565b60805160a051610d8c610151600039600081816101f8015281816104450152818161054801528181610691015261072801526000818161014d01526108980152610d8c6000f3fe608060405234801561001057600080fd5b50600436106101005760003560e01c8063a69df4b511610097578063e450f34111610066578063e450f3411461021a578063e6e25d1014610223578063f14faf6f1461022c578063ffd34ad51461023f57600080fd5b8063a69df4b5146101d0578063c7e62978146101d8578063cf7a8965146101eb578063d222a704146101f357600080fd5b8063416c58f6116100d3578063416c58f61461016f57806376f9bac31461019a5780638da5cb5b146101af578063a22df07f146101c757600080fd5b80630dfbe1af146101055780631b315f88146101275780631ef3755d1461013e57806320d3a0b414610148575b600080fd5b6003546101129060ff1681565b60405190151581526020015b60405180910390f35b61013060065481565b60405190815260200161011e565b610146610248565b005b6101307f000000000000000000000000000000000000000000000000000000000000000081565b600554610182906001600160a01b031681565b6040516001600160a01b03909116815260200161011e565b6101a26102a0565b60405161011e9190610b55565b6003546101829061010090046001600160a01b031681565b61013060045481565b610146610302565b6101826101e6366004610ba2565b610361565b61014661038b565b6101827f000000000000000000000000000000000000000000000000000000000000000081565b61013060015481565b61013060005481565b61014661023a366004610ba2565b6104de565b61013060025481565b60035460ff166102965760405162461bcd60e51b815260206004820152601460248201527323b0b6b2903234b23713ba1032b732103cb2ba1760611b60448201526064015b60405180910390fd5b61029e61060f565b565b606060078054806020026020016040519081016040528092919081815260200182805480156102f857602002820191906000526020600020905b81546001600160a01b031681526001909101906020018083116102da575b5050505050905090565b60035461010090046001600160a01b031633146102965760405162461bcd60e51b815260206004820181905260248201527f4f776e61626c653a2063616c6c6572206973206e6f7420746865206f776e6572604482015260640161028d565b6007818154811061037157600080fd5b6000918252602090912001546001600160a01b0316905081565b60035460ff16156103cf5760405162461bcd60e51b815260206004820152600e60248201526d30b63932b0b23c90313937b5b2b760911b604482015260640161028d565b600354336101009091046001600160a01b03160361041f5760405162461bcd60e51b815260206004820152600d60248201526c30b63932b0b23c9037bbb732b960991b604482015260640161028d565b6002546040516323b872dd60e01b815233600482015230602482015260448101919091527f00000000000000000000000000000000000000000000000000000000000000006001600160a01b0316906323b872dd906064016020604051808303816000875af1158015610496573d6000803e3d6000fd5b505050506040513d601f19601f820116820180604052508101906104ba9190610bbb565b6104c357600080fd5b6002546001546104d39190610bfa565b60015561029e61082c565b60035460ff16156105265760405162461bcd60e51b81526020600482015260126024820152712137bc1030b63932b0b23c90313937b5b2b760711b604482015260640161028d565b6040516323b872dd60e01b8152336004820152306024820152604481018290527f00000000000000000000000000000000000000000000000000000000000000006001600160a01b0316906323b872dd906064016020604051808303816000875af1158015610599573d6000803e3d6000fd5b505050506040513d601f19601f820116820180604052508101906105bd9190610bbb565b6105c657600080fd5b806001546105d49190610bfa565b60015560405181815233907f5d8bc849764969eb1bcc6d0a2f55999d0167c1ccec240a4f39cf664ca9c4148e9060200160405180910390a250565b600054421180610621575060035460ff165b61062a57600080fd5b60006103e860065460015461063f9190610c12565b6106499190610c47565b905060008160015461065b9190610c5b565b600060015560035460405163a9059cbb60e01b81526001600160a01b0361010090920482166004820152602481018390529192507f0000000000000000000000000000000000000000000000000000000000000000169063a9059cbb906044016020604051808303816000875af11580156106da573d6000803e3d6000fd5b505050506040513d601f19601f820116820180604052508101906106fe9190610bbb565b5060055460405163a9059cbb60e01b81526001600160a01b039182166004820152602481018490527f00000000000000000000000000000000000000000000000000000000000000009091169063a9059cbb906044016020604051808303816000875af1158015610773573d6000803e3d6000fd5b505050506040513d601f19601f820116820180604052508101906107979190610bbb565b506107a0610a5b565b6003546040518281526101009091046001600160a01b0316907f6381d9813cabeb57471b5a7e05078e64845ccdb563146a6911d536f24ce960f19060200160405180910390a26005546040518381526001600160a01b03909116907f918fef3c91561871b5306516ef89355e46af8dbbc7fd107280caa0cee7c627a29060200160405180910390a25050565b60075460009061083d600143610c5b565b610848919040610bfa565b90506000610857600a83610c72565b90506108896040518060400160405280600e81526020016d627265616b726573756c7420257360901b81525082610aba565b6007548111156109f6576108bd7f000000000000000000000000000000000000000000000000000000000000000042610bfa565b60009081556003805433610100908102610100600160a81b03198316179092556001600160a01b0391900416906001905b60075481101561094657336001600160a01b03166007828154811061091557610915610c86565b6000918252602090912001546001600160a01b03160361093457600091505b8061093e81610c9c565b9150506108ee565b50801561099057600780546001810182556000919091527fa66cc928b5edb82af9bd49922954155ab7b0942694bea4ce44661d9a8736c6880180546001600160a01b031916331790555b600480549060006109a083610c9c565b9091555050600180546040805192835260208301919091526001600160a01b0384169133917fa12648ef59b8fc15242feff231a31aff0cb191e12971282af4cf3b02db327a7a910160405180910390a350505050565b60038054600160ff1990911681179182905554604080516000815260208101929092526101009092046001600160a01b03169133917fa12648ef59b8fc15242feff231a31aff0cb191e12971282af4cf3b02db327a7a910160405180910390a35b5050565b336001600160a01b03167fd2f14703663929c016e32e241eb8bfeb3b8c50c56a3f11dfb2bd5390ebc90a036007604051610a959190610cb5565b60405180910390a26003805460ff19169055610ab360076000610b1b565b6000600455565b610a578282604051602401610ad0929190610cf9565b60408051601f198184030181529190526020810180516001600160e01b03166309710a9d60e41b17905280516a636f6e736f6c652e6c6f67602083016000808483855afa5050505050565b5080546000825590600052602060002090810190610b399190610b3c565b50565b5b80821115610b515760008155600101610b3d565b5090565b6020808252825182820181905260009190848201906040850190845b81811015610b965783516001600160a01b031683529284019291840191600101610b71565b50909695505050505050565b600060208284031215610bb457600080fd5b5035919050565b600060208284031215610bcd57600080fd5b81518015158114610bdd57600080fd5b9392505050565b634e487b7160e01b600052601160045260246000fd5b60008219821115610c0d57610c0d610be4565b500190565b6000816000190483118215151615610c2c57610c2c610be4565b500290565b634e487b7160e01b600052601260045260246000fd5b600082610c5657610c56610c31565b500490565b600082821015610c6d57610c6d610be4565b500390565b600082610c8157610c81610c31565b500690565b634e487b7160e01b600052603260045260246000fd5b600060018201610cae57610cae610be4565b5060010190565b6020808252825482820181905260008481528281209092916040850190845b81811015610b965783546001600160a01b031683526001938401939285019201610cd4565b604081526000835180604084015260005b81811015610d275760208187018101516060868401015201610d0a565b81811115610d39576000606083860101525b50602083019390935250601f91909101601f19160160600191905056fea26469706673582212202a4b08c37d96b52a45c336c34f0e261a83fa9a3ca5a1db0a49a803603ac57a4264736f6c634300080d0033",
  "devdoc": {
    "kind": "dev",
    "methods": {},
    "version": 1
  },
  "userdoc": {
    "kind": "user",
    "methods": {},
    "version": 1
  },
  "storageLayout": {
    "storage": [
      {
        "astId": 8147,
        "contract": "src/Degenbox.sol:DegenBox",
        "label": "unlockEnd",
        "offset": 0,
        "slot": "0",
        "type": "t_uint256"
      },
      {
        "astId": 8154,
        "contract": "src/Degenbox.sol:DegenBox",
        "label": "moneyInTheBox",
        "offset": 0,
        "slot": "1",
        "type": "t_uint256"
      },
      {
        "astId": 8156,
        "contract": "src/Degenbox.sol:DegenBox",
        "label": "fixedAmount",
        "offset": 0,
        "slot": "2",
        "type": "t_uint256"
      },
      {
        "astId": 8158,
        "contract": "src/Degenbox.sol:DegenBox",
        "label": "isBroken",
        "offset": 0,
        "slot": "3",
        "type": "t_bool"
      },
      {
        "astId": 8160,
        "contract": "src/Degenbox.sol:DegenBox",
        "label": "owner",
        "offset": 1,
        "slot": "3",
        "type": "t_address"
      },
      {
        "astId": 8162,
        "contract": "src/Degenbox.sol:DegenBox",
        "label": "stealCount",
        "offset": 0,
        "slot": "4",
        "type": "t_uint256"
      },
      {
        "astId": 8164,
        "contract": "src/Degenbox.sol:DegenBox",
        "label": "chairityAddress",
        "offset": 0,
        "slot": "5",
        "type": "t_address"
      },
      {
        "astId": 8166,
        "contract": "src/Degenbox.sol:DegenBox",
        "label": "chairityBP",
        "offset": 0,
        "slot": "6",
        "type": "t_uint256"
      },
      {
        "astId": 8169,
        "contract": "src/Degenbox.sol:DegenBox",
        "label": "degens",
        "offset": 0,
        "slot": "7",
        "type": "t_array(t_address)dyn_storage"
      }
    ],
    "types": {
      "t_address": {
        "encoding": "inplace",
        "label": "address",
        "numberOfBytes": "20"
      },
      "t_array(t_address)dyn_storage": {
        "base": "t_address",
        "encoding": "dynamic_array",
        "label": "address[]",
        "numberOfBytes": "32"
      },
      "t_bool": {
        "encoding": "inplace",
        "label": "bool",
        "numberOfBytes": "1"
      },
      "t_uint256": {
        "encoding": "inplace",
        "label": "uint256",
        "numberOfBytes": "32"
      }
    }
  }
}