{
  "address": "0x5EdBd0A8a1B11587366d93C2096532047931eD87",
  "abi": [
    {
      "inputs": [
        {
          "internalType": "uint256",
          "name": "_unlockPeriod",
          "type": "uint256"
        },
        {
          "internalType": "contract IERC20",
          "name": "_boxCurrency",
          "type": "address"
        },
        {
          "internalType": "uint256",
          "name": "_fixedAmount",
          "type": "uint256"
        }
      ],
      "stateMutability": "nonpayable",
      "type": "constructor"
    },
    {
      "anonymous": false,
      "inputs": [
        {
          "indexed": true,
          "internalType": "address",
          "name": "claimer",
          "type": "address"
        },
        {
          "indexed": false,
          "internalType": "uint256",
          "name": "amount",
          "type": "uint256"
        }
      ],
      "name": "BoxBroken",
      "type": "event"
    },
    {
      "anonymous": false,
      "inputs": [
        {
          "indexed": true,
          "internalType": "address",
          "name": "stealer",
          "type": "address"
        },
        {
          "indexed": true,
          "internalType": "address",
          "name": "victim",
          "type": "address"
        }
      ],
      "name": "BoxStolen",
      "type": "event"
    },
    {
      "anonymous": false,
      "inputs": [
        {
          "indexed": true,
          "internalType": "address",
          "name": "donor",
          "type": "address"
        },
        {
          "indexed": false,
          "internalType": "uint256",
          "name": "amount",
          "type": "uint256"
        }
      ],
      "name": "Donation",
      "type": "event"
    },
    {
      "anonymous": false,
      "inputs": [
        {
          "indexed": true,
          "internalType": "address",
          "name": "rester",
          "type": "address"
        },
        {
          "indexed": false,
          "internalType": "address[]",
          "name": "degens",
          "type": "address[]"
        }
      ],
      "name": "Reset",
      "type": "event"
    },
    {
      "inputs": [],
      "name": "boxCurrency",
      "outputs": [
        {
          "internalType": "contract IERC20",
          "name": "",
          "type": "address"
        }
      ],
      "stateMutability": "view",
      "type": "function"
    },
    {
      "inputs": [
        {
          "internalType": "uint256",
          "name": "",
          "type": "uint256"
        }
      ],
      "name": "degens",
      "outputs": [
        {
          "internalType": "address",
          "name": "",
          "type": "address"
        }
      ],
      "stateMutability": "view",
      "type": "function"
    },
    {
      "inputs": [
        {
          "internalType": "uint256",
          "name": "amount",
          "type": "uint256"
        }
      ],
      "name": "donate",
      "outputs": [],
      "stateMutability": "nonpayable",
      "type": "function"
    },
    {
      "inputs": [],
      "name": "fixedAmount",
      "outputs": [
        {
          "internalType": "uint256",
          "name": "",
          "type": "uint256"
        }
      ],
      "stateMutability": "view",
      "type": "function"
    },
    {
      "inputs": [],
      "name": "isBroken",
      "outputs": [
        {
          "internalType": "bool",
          "name": "",
          "type": "bool"
        }
      ],
      "stateMutability": "view",
      "type": "function"
    },
    {
      "inputs": [],
      "name": "moneyInTheBox",
      "outputs": [
        {
          "internalType": "uint256",
          "name": "",
          "type": "uint256"
        }
      ],
      "stateMutability": "view",
      "type": "function"
    },
    {
      "inputs": [],
      "name": "owner",
      "outputs": [
        {
          "internalType": "address",
          "name": "",
          "type": "address"
        }
      ],
      "stateMutability": "view",
      "type": "function"
    },
    {
      "inputs": [],
      "name": "restart",
      "outputs": [],
      "stateMutability": "nonpayable",
      "type": "function"
    },
    {
      "inputs": [],
      "name": "steal",
      "outputs": [],
      "stateMutability": "nonpayable",
      "type": "function"
    },
    {
      "inputs": [],
      "name": "unlock",
      "outputs": [],
      "stateMutability": "nonpayable",
      "type": "function"
    },
    {
      "inputs": [],
      "name": "unlockEnd",
      "outputs": [
        {
          "internalType": "uint256",
          "name": "",
          "type": "uint256"
        }
      ],
      "stateMutability": "view",
      "type": "function"
    },
    {
      "inputs": [],
      "name": "unlockPeriod",
      "outputs": [
        {
          "internalType": "uint256",
          "name": "",
          "type": "uint256"
        }
      ],
      "stateMutability": "view",
      "type": "function"
    }
  ],
  "transactionHash": "0x3a21474f19ef4b79c521ab1ce9a947f190df3d250ce3286caa93bf76d304b11f",
  "args": [
    1000,
    "0x2791Bca1f2de4661ED88A30C99A7a9449Aa84174",
    "1000000000000000"
  ],
  "numDeployments": 2,
  "solcInputHash": "8f7fbd91ab9b7904b7cbb0f5b673bf2b",
  "bytecode": "0x60c060405234801561001057600080fd5b50604051610c62380380610c6283398101604081905261002f91610058565b608083905261003e834261009e565b6000556001600160a01b0390911660a052600355506100c4565b60008060006060848603121561006d57600080fd5b835160208501519093506001600160a01b038116811461008c57600080fd5b80925050604084015190509250925092565b600082198211156100bf57634e487b7160e01b600052601160045260246000fd5b500190565b60805160a051610b5e61010460003960008181610172015281816102bd015281816103f3015261052801526000818160ea01526107570152610b5e6000f3fe608060405234801561001057600080fd5b50600436106100b45760003560e01c8063cf7a896511610071578063cf7a896514610165578063d222a7041461016d578063e450f34114610194578063e6e25d101461019d578063f14faf6f146101a6578063ffd34ad5146101b957600080fd5b80630dfbe1af146100b95780631ef3755d146100db57806320d3a0b4146100e55780638da5cb5b1461011a578063a69df4b51461014a578063c7e6297814610152575b600080fd5b6002546100c69060ff1681565b60405190151581526020015b60405180910390f35b6100e36101c2565b005b61010c7f000000000000000000000000000000000000000000000000000000000000000081565b6040519081526020016100d2565b6002546101329061010090046001600160a01b031681565b6040516001600160a01b0390911681526020016100d2565b6100e3610216565b610132610160366004610995565b610336565b6100e3610360565b6101327f000000000000000000000000000000000000000000000000000000000000000081565b61010c60015481565b61010c60005481565b6100e36101b4366004610995565b6104be565b61010c60035481565b60025460ff1661020c5760405162461bcd60e51b815260206004820152601060248201526f2137bc1034b9b713ba10313937b5b2b760811b60448201526064015b60405180910390fd5b6102146105ef565b565b60025461010090046001600160a01b031633146102755760405162461bcd60e51b815260206004820181905260248201527f4f776e61626c653a2063616c6c6572206973206e6f7420746865206f776e65726044820152606401610203565b600054421180610287575060025460ff165b61029057600080fd5b6001805460009091556102a16105ef565b60405163a9059cbb60e01b8152336004820152602481018290527f00000000000000000000000000000000000000000000000000000000000000006001600160a01b03169063a9059cbb906044016020604051808303816000875af115801561030e573d6000803e3d6000fd5b505050506040513d601f19601f8201168201806040525081019061033291906109ae565b5050565b6004818154811061034657600080fd5b6000918252602090912001546001600160a01b0316905081565b61038960405180604001604052806008815260200167737465616c696e6760c01b815250610647565b60025460ff16156103cd5760405162461bcd60e51b815260206004820152600e60248201526d30b63932b0b23c90313937b5b2b760911b6044820152606401610203565b6003546040516323b872dd60e01b815233600482015230602482015260448101919091527f00000000000000000000000000000000000000000000000000000000000000006001600160a01b0316906323b872dd906064016020604051808303816000875af1158015610444573d6000803e3d6000fd5b505050506040513d601f19601f8201168201806040525081019061046891906109ae565b61047157600080fd5b60035460015461048191906109ed565b600181905560408051808201909152601081526f6d6f6e6579496e546865426f7820257360801b60208201526104b69161068d565b6102146106d2565b60025460ff16156105065760405162461bcd60e51b81526020600482015260126024820152712137bc1030b63932b0b23c90313937b5b2b760711b6044820152606401610203565b6040516323b872dd60e01b8152336004820152306024820152604481018290527f00000000000000000000000000000000000000000000000000000000000000006001600160a01b0316906323b872dd906064016020604051808303816000875af1158015610579573d6000803e3d6000fd5b505050506040513d601f19601f8201168201806040525081019061059d91906109ae565b6105a657600080fd5b806001546105b491906109ed565b60015560405181815233907f5d8bc849764969eb1bcc6d0a2f55999d0167c1ccec240a4f39cf664ca9c4148e9060200160405180910390a250565b336001600160a01b03167fd2f14703663929c016e32e241eb8bfeb3b8c50c56a3f11dfb2bd5390ebc90a0360046040516106299190610a05565b60405180910390a26002805460ff1916905561021460046000610963565b61068a8160405160240161065b9190610aa2565b60408051601f198184030181529190526020810180516001600160e01b031663104c13eb60e21b179052610942565b50565b61033282826040516024016106a3929190610ab5565b60408051601f198184030181529190526020810180516001600160e01b03166309710a9d60e41b179052610942565b60045460408051446020808301919091524282840152606080830194909452825180830390940184526080909101909152815191012060006107166103e883610ad7565b90506107486040518060400160405280600e81526020016d627265616b726573756c7420257360901b8152508261068d565b6004548111156108bc5761077c7f0000000000000000000000000000000000000000000000000000000000000000426109ed565b60009081556002805433610100908102610100600160a81b03198316179092556001600160a01b0391900416906001905b60045481101561080557336001600160a01b0316600482815481106107d4576107d4610af9565b6000918252602090912001546001600160a01b0316036107f357600091505b806107fd81610b0f565b9150506107ad565b50801561084f57600480546001810182556000919091527f8a35acfbc15ff81a39ae7d344fd709f28e8600b4aa8c65c6b64bfe7fe36bd19b0180546001600160a01b031916331790555b6108806040518060400160405280601081526020016f1a195a5cdd081cdd58d8d95cd99d5b1b60821b815250610647565b6040516001600160a01b0383169033907f3e180be487873b5f934a22236488c4b86b5b5bd9516a5c8e4da5d281ccf3c8e590600090a350505050565b6002805460ff1916600117905560408051808201909152600c81526b1a195a5cdd0819985a5b195960a21b60208201526108f590610647565b6002546001546040519081526101009091046001600160a01b0316907f4c6930485c64716b6305246f9de42caf9e68d34423d6daa684d523237b70d1569060200160405180910390a25050565b80516a636f6e736f6c652e6c6f67602083016000808483855afa5050505050565b508054600082559060005260206000209081019061068a91905b80821115610991576000815560010161097d565b5090565b6000602082840312156109a757600080fd5b5035919050565b6000602082840312156109c057600080fd5b815180151581146109d057600080fd5b9392505050565b634e487b7160e01b600052601160045260246000fd5b60008219821115610a0057610a006109d7565b500190565b6020808252825482820181905260008481528281209092916040850190845b81811015610a495783546001600160a01b031683526001938401939285019201610a24565b50909695505050505050565b6000815180845260005b81811015610a7b57602081850181015186830182015201610a5f565b81811115610a8d576000602083870101525b50601f01601f19169290920160200192915050565b6020815260006109d06020830184610a55565b604081526000610ac86040830185610a55565b90508260208301529392505050565b600082610af457634e487b7160e01b600052601260045260246000fd5b500690565b634e487b7160e01b600052603260045260246000fd5b600060018201610b2157610b216109d7565b506001019056fea2646970667358221220d340f066db5b3b8fd1ea4620c97f704f4d68ad3648bb59aa09f6e049925f989664736f6c634300080d0033",
  "devdoc": {
    "kind": "dev",
    "methods": {},
    "version": 1
  },
  "userdoc": {
    "kind": "user",
    "methods": {},
    "version": 1
  },
  "storageLayout": {
    "storage": [
      {
        "astId": 8571,
        "contract": "src/DegenboxOld.sol:DegenBoxOld",
        "label": "unlockEnd",
        "offset": 0,
        "slot": "0",
        "type": "t_uint256"
      },
      {
        "astId": 8575,
        "contract": "src/DegenboxOld.sol:DegenBoxOld",
        "label": "moneyInTheBox",
        "offset": 0,
        "slot": "1",
        "type": "t_uint256"
      },
      {
        "astId": 8580,
        "contract": "src/DegenboxOld.sol:DegenBoxOld",
        "label": "isBroken",
        "offset": 0,
        "slot": "2",
        "type": "t_bool"
      },
      {
        "astId": 8582,
        "contract": "src/DegenboxOld.sol:DegenBoxOld",
        "label": "owner",
        "offset": 1,
        "slot": "2",
        "type": "t_address"
      },
      {
        "astId": 8584,
        "contract": "src/DegenboxOld.sol:DegenBoxOld",
        "label": "fixedAmount",
        "offset": 0,
        "slot": "3",
        "type": "t_uint256"
      },
      {
        "astId": 8587,
        "contract": "src/DegenboxOld.sol:DegenBoxOld",
        "label": "degens",
        "offset": 0,
        "slot": "4",
        "type": "t_array(t_address)dyn_storage"
      }
    ],
    "types": {
      "t_address": {
        "encoding": "inplace",
        "label": "address",
        "numberOfBytes": "20"
      },
      "t_array(t_address)dyn_storage": {
        "base": "t_address",
        "encoding": "dynamic_array",
        "label": "address[]",
        "numberOfBytes": "32"
      },
      "t_bool": {
        "encoding": "inplace",
        "label": "bool",
        "numberOfBytes": "1"
      },
      "t_uint256": {
        "encoding": "inplace",
        "label": "uint256",
        "numberOfBytes": "32"
      }
    }
  }
}